:020000040800F2
:10000000B0280020290200081F1B0008CF18000894
:100010001D1B000871060008B9210008000000003F
:100020000000000000000000000000009101000836
:100030007306000800000000D5010008211E00081A
:10004000430200084302000843020008430200087C
:10005000430200084302000843020008430200086C
:10006000430200084302000843020008430200085C
:10007000430200084302000843020008430200084C
:10008000430200084302000843020008430200083C
:10009000430200084302000843020008430200082C
:1000A000430200084302000843020008430200081C
:1000B00043020008AD1E0008B91E000843020008F4
:1000C00043020008430200084302000843020008FC
:1000D000430200084302000843020008AD21000863
:1000E00043020008430200084302000800F002F83F
:1000F00000F03FF80AA090E8000C82448344AAF183
:100100000107DA4501D100F034F8AFF2090EBAE880
:100110000F0013F0010F18BFFB1A43F0010318473B
:100120000448000024480000103A24BF78C878C171
:10013000FAD8520724BF30C830C144BF04680C60ED
:10014000704700000023002400250026103A28BF35
:1001500078C1FBD8520728BF30C148BF0B60704739
:10016000642900F0C380002070471FB51FBD10B583
:1001700010BD00F04BFA1146FFF7F7FF02F03AF816
:1001800000F069FA03B4FFF7F2FF03BC02F025F8B0
:10019000224B19680868B0E8F00F80F30988BFF3B4
:1001A0006F8F4FF0000080F311884EF00D0E7047F6
:1001B0000000000006480068006880F3088862B606
:1001C00061B6BFF34F8FBFF36F8F00DF00BF00BF7B
:1001D00008ED00E0EFF30980BFF36F8F0F4B1A6853
:1001E00020E9F00F106008B54FF0500080F311883F
:1001F000BFF34F8FBFF36F8F03F058F84FF000003D
:1002000080F31188BDE8084019680868B0E8F00F6D
:1002100080F30988BFF36F8F704700BF2C00002068
:10022000EFF3058070470000094880470948004700
:10023000FEE7FEE7FEE7FEE7FEE7FEE7FEE7FEE796
:10024000FEE7FEE704480549054A064B70470000F3
:10025000AB1E0008ED000008B0220020B0280020EE
:10026000B0240020B0240020704700000FB40449DF
:1002700010B503AA029800F069F910BC5DF814FBF0
:10028000180000202DE9F0410E46044600202062AF
:100290002046E168884730B3252805D0D4E90121FC
:1002A0009047206A401CF2E7E16820460027884713
:1002B000050018D0A5F14100192802D820354FF4C7
:1002C00000673246294620462760FFF749FF40B1C4
:1002D000012804D0F61D26F007060836D8E7361D9B
:1002E000D6E72846DAE7206ABDE8F0812DE9F0413B
:1002F0000646002410687529314616A510D0AFF3C4
:100300000080002802DA404213A507E031688A071E
:1003100001D512A502E0490704D511A5012401E089
:10032000AFF3008000210A2206F1240709E0B0FBA8
:10033000F2FCB0FBF2F302FB1C003030785418469C
:10034000491C0028F3D123462A463046BDE8F04137
:1003500000F0A2B8000000002D0000002B000000FB
:1003600020000000032A40F2308010F0030C00F05F
:10037000158011F8013BBCF1020F624498BF11F8DF
:1003800001CB00F8013B38BF11F8013BA2F1040298
:1003900098BF00F801CB38BF00F8013B11F0030310
:1003A00000F0E680083AC0F0088051F8043B083AB3
:1003B00051F804CBA0E80810F5E7121D5CBF51F816
:1003C000043B40F8043BAFF30080D20724BF11F890
:1003D000013B11F801CB48BF11F8012B24BF00F8F5
:1003E000013B00F801CB48BF00F8012B704702F039
:1003F000FF0343EA032242EA024200F002B84FF050
:1004000000020429C0F0128010F0030C00F01B80E1
:10041000CCF1040CBCF1020F18BF00F8012BA8BFEF
:1004200020F8022BA1EB0C0100F00DB85FEAC17CB3
:1004300024BF00F8012B00F8012B48BF00F8012B66
:1004400070474FF0000200B5134694469646203997
:1004500022BFA0E80C50A0E80C50B1F12001BFF47D
:10046000F7AF090728BFA0E80C5048BF0CC05DF8E3
:1004700004EB890028BF40F8042B08BF704748BF31
:1004800020F8022B11F0804F18BF00F8012B7047A5
:1004900070477047704770472DE9F0470D46994601
:1004A0009246044600F124080168880604D5E069F4
:1004B00021F01001216000E00120A84201DD471B6E
:1004C00000E00027A1697A1902EB0900081AA0616F
:1004D0002078C00602D42046AFF30080002608E052
:1004E000D4E901211AF806009047206A401C761CC6
:1004F00020624E45F4DB2078C0060AD52046AFF3D3
:10050000008006E0D4E9012130209047206A401C99
:100510002062381EA7F10107F4DC07E0D4E90121CD
:1005200018F805009047206A401C2062281EA5F19B
:100530000105F3DC2046AFF300802078000602D5E9
:100540000220BDE8F0870120FBE70000074B70B5F3
:100550000D467B4400F043F80446284600F052F86C
:1005600010B14FF0FF3070BD204670BD871C0000F9
:1005700010B5203AC0F00B80B1E81850203AA0E83E
:100580001850B1E81850A0E81850BFF4F5AF5FEA72
:10059000027C24BFB1E81850A0E8185044BF18C925
:1005A00018C0BDE810405FEA827C24BF51F8043BCC
:1005B00040F8043B08BF7047D20728BF31F8023B20
:1005C00048BF11F8012B28BF20F8023B48BF00F8B4
:1005D000012B704701694A1C02610878704700B519
:1005E0008FB0CDE901310021059105497944CDE96C
:1005F000031011466846FFF745FE0FB000BD00002E
:10060000E5FFFFFF007B00F080007047754600F0BB
:100610002BF8AE4605006946534620F00700854694
:1006200018B020B5FFF70EFEBDE820404FF00006E1
:100630004FF000074FF000084FF0000B21F00701CA
:10064000AC46ACE8C009ACE8C009ACE8C009ACE80D
:10065000C0098D46704710B50446AFF300802046B0
:10066000BDE81040FFF78EBD0048704750220020C3
:10067000FEE7704710B54FF4FA6002F0D3FC15A006
:10068000FFF7F4FD40F6B834204602F0CBFC1B48DF
:10069000FFF7ECFD204602F0C5FC1948FFF7E6FD28
:1006A000204602F0BFFC1748FFF7E0FD600002F0B3
:1006B000B9FC15A0FFF7DAFD41F2883002F0B2FC78
:1006C0001D48006803F0B8F8BDE81040002002F0B3
:1006D000CFBC000041542B434950534E5450434625
:1006E000473D312C382C226E7470312E616C697943
:1006F000756E2E636F6D220D0A0000008C47000896
:1007000008480008B848000841542B4D5154545330
:1007100055423D302C222F6B316C773950766C6806
:1007200071622F746573742F757365722F676574AA
:10073000222C310D0A0000000400002072B6FEE7F2
:1007400010B590F821100022022905D00421816300
:1007500080F82020012010BD01680B6823F00E03F3
:100760000B6001680B6823F001030B6090F84030C8
:10077000C46B012101FA03F3636080F8211080F853
:100780002020104610BD000010B590F82110002464
:10079000022903D00421816301243DE001680A6835
:1007A00022F00E020A6001680A6822F001020A6063
:1007B0001A4A0168914201D1012121E0174A1432FD
:1007C000914201D110211BE0144A2832914201D1FB
:1007D000891515E0114A3C32914201D189140FE08C
:1007E0000E4A5032914202D14FF4803108E00B4A58
:1007F0006432914202D14FF4801101E04FF08071D8
:10080000064A083A5160012180F82110002180F841
:100810002010416B01B18847204610BD08000240FE
:100820002DE9F84FDFF8B8910024A9F1040B234615
:100830000F2709F1040AABF1040EC9E00125A54018
:100840002A40AA427DD1674ED1F804C0ACEB06081D
:10085000B44532D014DCBCF1030F3AD009DCBCF152
:10086000000F2AD0BCF1010F1CD0BCF1020F31D116
:100870001DE0BCF1110F17D0BCF1120F2AD119E005
:10088000B8F5881F19D006DCB8F5803F15D0B8F54B
:10089000801F1FD111E0B8F5001F0ED0B8F5041F5E
:1008A00018D10AE0CB6815E0CB681B1D12E0CB68BD
:1008B00008330FE0CB680C330CE08B682BB1012BB5
:1008C0004FF0080303D0456104E0042302E0056112
:1008D00000E00023FF2A01D8064601E000F10406EB
:1008E0004FEA840501D9A5F12005D6F8008007FA62
:1008F00005FC28EA0C0803FA05F548EA0508C6F8DD
:1009000000804D68ED0062D5374DAE6946F00106B6
:10091000AE61AD6924F0030605F001050095334D85
:1009200006EB050CDCF80850A607360F07FA06F8A8
:1009300025EA0805DFF8B880404503D14FF00008EC
:1009400017E044E0DFF8AC80404502D14FF00108E9
:100950000FE0DFF8A480404502D14FF0020808E024
:10096000DFF89880404502D14FF0030801E04FF0D6
:10097000040808FA06F848EA0508CCF808804D682B
:10098000D9F80060ED024D4601D5164300E09643CC
:100990002E604D68DAF80060AD02554601D5164369
:1009A00000E096432E604D68DBF80060AD035D46C5
:1009B00001D5164300E096432E604D68DEF80060D6
:1009C000ED03754601D5164300E096432E60641C86
:1009D0000D682A46E5407FF431AFBDE8F88F00008E
:1009E0000804014000001110001002400000014006
:1009F00000080140000C01400010014000140140BB
:100A0000C26821EA02030A4043EA024101617047D9
:100A10000AB1016170470904FBE7000001488068E2
:100A2000704700001C0000200248816802781144D1
:100A3000816070471C000020074810B5016841F034
:100A400010010160032000F0A7F80F2000F006F865
:100A500000F050F8002010BD0020024030B50546DF
:100A60001F4887B0C16941F00401C161C06906A98E
:100A700000F00400009001A800F036F90498B0B12D
:100A800000F052F940001749174AB0FBF1F117483E
:100A9000491E0260416040F2E7320021C0E90321B3
:100AA0008160816100F04CFB040003D015E000F090
:100AB0003BF9E8E70D4800F08FFB04000DD11E2044
:100AC00000F03CF8102D07D2002229461E2000F02D
:100AD00043F80748056000E0012407B0204630BD18
:100AE0000010024040420F0000080040340900207E
:100AF000200000200F4808B5816941F001018161A3
:100B0000816901F001010091C16941F08051C16129
:100B1000C069002200F0805000900F21901E00F06C
:100B20001BF80548416821F0E06141F00071416027
:100B300008BD00000010024000000140002809DB51
:100B400000F01F02012191404009800000F1E020E7
:100B5000C0F8001170470000F0B40E4B1B680C4643
:100B6000C3F30223C3F10705042D00D90425191D81
:100B7000072901D2002300E0DB1E012606FA05F159
:100B8000491E214099409E40761E16403143F0BCDC
:100B900001F013BB0CED00E0064900F00702086805
:100BA0004FF6FF03184040EA0220034A1043086052
:100BB000704700000CED00E00000FA052DE9F04759
:100BC0000F46050061D0434E306800F00700B84280
:100BD00009D2306820F0070038433060306800F0F8
:100BE0000700B84251D128683B4C810712D5400715
:100BF00003D5606840F4E06060602878000703D5A2
:100C0000606840F4605060606068A96820F0F0009F
:100C1000084360602878C00728D06868012810D091
:100C20002168022810D0890700292EDA616821F096
:100C3000030101436160FFF7F1FE804641F288390C
:100C40000DE021688903EFE78901EDE7FFF7E6FE94
:100C5000A0EB0801494502D90320BDE8F087606890
:100C6000696800F00C00B0EB810FEFD1306800F044
:100C70000700B8420BD9306820F0070038433060D5
:100C8000306800F00700B84201D00120E5E728787D
:100C9000400705D56068E96820F4E06008436060BB
:100CA0002878000706D56068296920F4605040EA7A
:100CB000C100606000F058F86168084AC1F3031190
:100CC000515CC8400649086006480068FFF7C6FE48
:100CD0000020C2E7002002400010024082410008CC
:100CE00028000020200000200F2202600C4A5368D8
:100CF00003F003034360536803F0F0038360536819
:100D000003F4E063C36052684FF4E06303EAD20285
:100D100002610448006800F00700086070470000A6
:100D2000001002400020024004480549006849685C
:100D3000044AC1F30221515CC840704728000020DA
:100D400000100240924100080448054900684968C3
:100D5000044AC1F3C221515CC840704728000020FA
:100D600000100240924100080E4A51680E4801F0FE
:100D70000C03042B11D0082B0FD10C48C1F3834373
:100D8000C903C05C0AD55168084AC1F34041921EAC
:100D9000515C054A5043B0FBF1F0704704494843A9
:100DA000704700000010024000127A0072410008F3
:100DB00000093D002DE9F84F040070D02078C04DA7
:100DC000C00749D06868C0F38100012807D068686F
:100DD000C0F38100022809D16868C00306D52868DD
:100DE000800339D560680028E7D035E06068B0F549
:100DF000803F0BD010B1B0F5A02F11D0286820F49F
:100E000080302860286820F4802002E0286840F4C0
:100E100080302860606890B1FFF700FE06460AE067
:100E2000286840F480202860F0E700BFFFF7F6FD57
:100E3000801B642873D828688003F7D50CE0FFF77F
:100E4000EDFD064605E000BFFFF7E8FD801B6428C6
:100E5000F0D828688003F7D420789A4E80074FF0A6
:100E600001094FF0000839D5686810F00C0F07D061
:100E70006868C0F38100022809D16868C00306D4FD
:100E80002868800714D52069012808D110E020695E
:100E9000B0B1C6F80090FFF7C1FD074605E00AE1D2
:100EA000FFF7BCFDC01B0228C4D828688007F7D50F
:100EB0002868616920F0F80040EAC10028600DE070
:100EC000C6F80080FFF7AAFD074604E0FFF7A6FD7D
:100ED000C01B022823D828688007F7D42078000791
:100EE0002CD57948A169D9B1C0F80090FFF796FDDB
:100EF000074604E0FFF792FDC01B02280FD8686A7E
:100F00008007F7D571484FF4FA510068B0FBF1F053
:100F1000009000BF0098411E0091FAD20EE080E0E0
:100F2000C0F80080FFF77AFD074604E0FFF776FD82
:100F3000C01B022875D8686A8007F7D4207840075C
:100F400060D5E8690027C00008D4E86940F0805007
:100F5000E861E869012700F0805000905C48016872
:100F6000C90513D40168834641F480710160FFF71D
:100F700055FD824606E000BFFFF750FDA0EB0A00DA
:100F800064284ED8DBF80000C005F5D5E0680128DC
:100F90000AD008B1052813D0286A20F00100286281
:100FA000286A20F0040002E0286A40F0010028626C
:100FB000E06841F2883B98B1FFF730FD82460BE0D4
:100FC000286A40F004002862EEE700BFFFF726FD24
:100FD000A0EB0A0159455AD8286A8007F6D50CE0DB
:100FE000FFF71CFD824605E0FFF718FDA0EB0A01A4
:100FF00059454CD8286A8007F6D41FB1E86920F01B
:101000008050E861E06988B36968C1F38101022911
:1010100044D00228C6F8608004D0FFF7FFFC0446E5
:1010200038E034E0FFF7FAFC074604E0FFF7F6FC8F
:10103000C01B02282BD828688001F7D4206AB0F59D
:10104000803F05D16868A16820F4003008436860DB
:10105000D4E908010843696821F474110843686001
:10106000C6F86090FFF7DAFC044606E025E000BF12
:10107000FFF7D4FC001B022809D828688001F7D5A7
:101080001BE000BFFFF7CAFC001B022802D90320A7
:10109000BDE8F88F28688001F4D40EE00128F7D06D
:1010A0006868226A00F48031914204D1616A00F4D8
:1010B0007010884201D00120EAE70020E8E7000034
:1010C00000100240000042428004424228000020FA
:1010D000007000407047704770B590F83C20012ABE
:1010E00026D0012480F83C40022280F83D2003688D
:1010F0005A689D6822F070060A6832435A600D4BA8
:1011000002689A4208D0B2F1804F05D00A4B9A4249
:1011100002D00A4B9A4204D1496825F08003194352
:10112000916080F83D40002180F83C10084670BD79
:10113000022070BD002C0140000400400008004067
:1011400010B5040003D094F83D0010B107E0012071
:1011500010BD002084F83C00204600F01FF802205B
:1011600084F83D00211D206800F0ACFE012084F8C9
:10117000460084F83E0084F83F0084F8400084F87C
:10118000410084F8420084F8430084F8440084F865
:10119000450084F83D00002010BD000008B500683F
:1011A0000B49884212D10B48C16941F00201C1616B
:1011B000C069002200F00200009005211D20FFF709
:1011C000CBFCBDE808401D20FFF7B8BC08BD0000FF
:1011D000000400400010024090F83D10012901D0A9
:1011E00001207047022180F83D100168CA6842F072
:1011F0000102CA6000680B49884208D0B0F1804FF4
:1012000005D00949884202D00849884204D1816842
:1012100001F00701062903D0016841F001010160D6
:1012200000207047002C01400004004000080040EE
:101230000168CA6822F00102CA6001680A6A41F2C4
:1012400011131A4207D10A6A9B101A4203D10A6885
:1012500022F001020A60012180F83D100020704751
:1012600070B5044690F83C000025012817D00126EF
:1012700084F83C60022084F83D002068826822F0F7
:10128000770222F47F4282600868502838D00DDC53
:1012900020284FD005DC90B3102811D14AE002205D
:1012A00070BD302846D040280AD13BE060282FD0BE
:1012B00070280DD0B0F5805F03D0B0F5005F12D07C
:1012C000012584F83D60002084F83C00284670BD6C
:1012D000CB68D1E90121206800F02AFE20688168EE
:1012E00041F0770109E0CB68D1E90121206800F0E5
:1012F0001FFE2068816841F480418160E1E719E0C8
:10130000CA684968206800F025FE5021206806E080
:10131000CA684968206800F02EFE6021206800F04D
:1013200011FECEE7CA684968206800F013FE40212C
:101330002068F4E7226801461046F0E7704770B570
:101340000446006801694FF00005C943890715D4B8
:10135000C168C943890711D4E91E016101202077C2
:10136000206880698007204602D0FFF7E7FF04E08D
:1013700000F098F8204600F096F82577206801697B
:10138000C943490717D4C168C943490713D46FF04B
:1013900004010161022020772068806910F4407FF9
:1013A000204602D0FFF7CAFF04E000F07BF8204699
:1013B00000F079F8257720680169C943090716D438
:1013C000C168C943090712D46FF008010161042004
:1013D00020772068C0698007204602D0FFF7AEFF63
:1013E00004E000F05FF8204600F05DF82577206803
:1013F0000169C943C90617D4C168C943C90613D4D2
:101400006FF010010161082020772068C06910F496
:10141000407F204602D0FFF791FF04E000F042F841
:10142000204600F040F8257720680169C943C907C4
:1014300008D1C168C943C90704D1891E016120468A
:1014400000F032F820680169C943090609D4C1686F
:10145000C943090605D46FF0800101612046FFF7FA
:1014600039FE20680169C943490609D4C168C943E6
:10147000490605D46FF040010161204600F03EF8B6
:1014800020680169C94389060BD4C168C94389062C
:1014900007D46FF0200101612046BDE87040FFF7DE
:1014A0001ABE70BD7047704710B5044600680D49FC
:1014B000884201D1FFF7B8FA0B49206888420FD162
:1014C00041140A48FFF79CFA0949012008700948AD
:1014D000FFF7AEFE08480068BDE8104000F084BF8A
:1014E00010BD000000080040000400400010014052
:1014F00000000020A408002014000020704770475E
:1015000070470000F8B5016804460868CA684B696E
:1015100010F00F0F4FF0000559D003F0010602F450
:101520009077374365D0C10705D0D10503D5616CED
:1015300041F001016164410705D5D90703D0616C11
:1015400041F002016164810705D5D90703D0616CC0
:1015500041F004016164010707D502F02001314325
:1015600003D0616C41F008016164616C00293AD0DC
:10157000800604D5900602D5204600F03DFD206887
:101580004069616CC0F38010090700D460B3204645
:1015900000F00BFD20684069400621D5206814301A
:1015A00050E8001F21F0400140E80012002AF5D168
:1015B000E06BA8B16D494163E06BFFF7E5F80028E7
:1015C00011D0E06B416B01B0BDE8F04008478306E5
:1015D0000FD593060DD52046BDE8F84000F00CBDB0
:1015E0002046FFF78DFFF8BD2046FFF789FF6564B1
:1015F000F8BD266B2023012E7CD1C6067AD5D606EF
:1016000078D508684868009048694FF0020640069F
:1016100040D5E16B086840680004000CE8D0A28D5A
:101620008242E5D9E085886920282DD020680C30D9
:1016300050E8001F21F4807140E80012002AF5D123
:101640002068143050E8001F21F0010140E800122A
:10165000002AF5D12068143050E8001F21F0400125
:1016600040E80012002AF5D184F842302563206852
:101670000C3050E8001F21F0100140E80012002A51
:10168000F5D1E06BFFF75CF86663A08DE18D401A41
:1016900081B22AE0A08DE18D401A81B2E08D002850
:1016A000A6D00029A4D022680C3252E8000F20F402
:1016B000907042E80007002FF5D12068143050E800
:1016C000002F22F0010240E80027002FF5D184F816
:1016D0004230256320680C3050E8002F22F01002C1
:1016E00040E80023002BF5D166632046FFF707FF93
:1016F000F8BDFFE705062BD5150629D594F841005E
:101700002128F5D1A068B0F5805F01D12069B0B182
:10171000206A411C2162216800784860E08C401EEC
:101720000004000CE084E3D12068C16821F080014E
:10173000C1602068C16841F04001C160D8E7206AFB
:101740000088C0F308004860206A801C2062E5E73A
:101750004006CDD55006CBD5CA68204622F04002BF
:10176000CA6084F8413000F0B1F8C1E79B1F00085F
:1017700070B5040004D094F84100002510B106E0D3
:10178000012070BD84F84050204600F023F824204A
:1017900084F841002068C16821F40051C1602046EE
:1017A00000F08CFC2068016921F4904101612068FF
:1017B000416921F02A0141612068C16841F400516A
:1017C000C1606564202084F8410084F842006563AC
:1017D000002070BD30B585B00024009401940294BF
:1017E00003940068184988422CD11848C16941F413
:1017F0008021C161C16901F480210491816941F0B6
:10180000080181618069124D00F0080004904FF4D6
:1018100080600090022001900320039069462846D2
:10182000FEF7FEFFE814CDE900046946284602945D
:10183000FEF7F6FF002205212720FFF78DF927206C
:10184000FFF77CF905B030BD0048004000100240B1
:10185000000C014090F84230202B01D0022070474C
:1018600021B11AB10023036300F084BC012070474A
:1018700010B50068104988421DD110480021026847
:1018800051620F4C618831B900686FF0010101614C
:101890000A48FFF7A1FC0A480A4A401C0178608800
:1018A0001154401C608006490122BDE81040491CCB
:1018B0000548FFF7CFBF10BD00480040A408002036
:1018C00000000020A4000020EC0800207047FEE784
:1018D000044B08B1012200E0002210211846FFF756
:1018E00097B80000000C014007460A4C4FF0FF3546
:1018F00041F288362946206802F064F939460648E4
:10190000FEF7B4FC304601F08DFB002001F0B0FB87
:10191000F0E7000004000020704800081CB500F04B
:1019200012F900F0FDF8042001F083FD194C0021AC
:10193000206002F047F9042001F07BFD0021606087
:1019400002F040F90121144A084600F0F5FC124A61
:101950002061483A0021114800F07EFD0E4AA06047
:10196000243A00210E4800F077FDE06000241820A2
:10197000CDE900040BA364220BA10F4802F07CF90F
:101980001920CDE90004002380220CA10F4802F0A9
:1019900073F91CBD0400002060410008691D0008A7
:1019A000951D00083100000053656E642046756E79
:1019B0006374696F6E000000E918000845535038E1
:1019C00032363620496E6974000000007506000842
:1019D0002DE9F04385B00024254800940194029439
:1019E0000394816941F010018161816901F0100166
:1019F0000491816941F020018161816901F0200138
:101A00000491816941F008018161816901F0080157
:101A10000491816941F0040181618069DFF854809B
:101A200000F004004FF4005504900022294640467F
:101A3000FEF7EEFFDFF840904FF210070022394624
:101A40004846FEF7E5FF0095022601250396CDE9FD
:101A5000015469464046FEF7E3FE00970396CDE940
:101A6000015469464846FEF7DBFE05B0BDE8F08349
:101A70000010024000100140000C014010B586B07B
:101A80000024174800940194029403940494134989
:101A90000594016041F61F41C0E901143121C0E9FC
:101AA00003148461FFF74CFB08B1FEF747FE4FF4C7
:101AB0008050009069460A48FFF7D2FB08B1FEF754
:101AC0003DFE049404A906480594FFF705FB002891
:101AD00001D0FEF733FE06B010BD00000004004048
:101AE000A40800200C4810B50A4901604FF4E13108
:101AF0004160002181600C22C160C0E90412816153
:101B0000C161FFF735FE002803D0BDE81040FEF7A5
:101B100015BE10BD00480040EC080020FEE7FEE7BF
:101B200070B500240021204600F0A6F80025002012
:101B300000F00CF96D1CEDB2802DF8D3641CE4B2FA
:101B4000082CEFD370BD10B500204FF47A7200213D
:101B5000491C9142FCD3401C9042F8D300F04AF853
:101B6000AE2000F0E3F8D52000F0E0F8802000F08F
:101B7000DDF8A82000F0DAF83F2000F0D7F8D320F5
:101B800000F0D4F8002000F0D1F8402000F0CEF8AA
:101B9000A12000F0CBF8C82000F0C8F8DA2000F04F
:101BA000C5F8122000F0C2F8812000F0BFF8CF2065
:101BB00000F0BCF8D92000F0B9F8F12000F0B6F838
:101BC000DB2000F0B3F8302000F0B0F8A42000F0E3
:101BD000ADF8A62000F0AAF88D2000F0A7F8142098
:101BE00000F0A4F8AF2000F0A1F8BDE81040FFF726
:101BF00097BF000010B50B4C012211032046FEF7E1
:101C000007FF012251032046FEF702FF0122910344
:101C10002046FEF7FDFE20460122BDE81040D1031C
:101C2000FEF7F6BE000C01402DE9F047114F0546C6
:101C300000244FF080084FF400594FF480560022E2
:101C400031463846FEF7E4FE28FA04F0284201D077
:101C5000012200E0002249463846FEF7D9FE012263
:101C600031463846FEF7D4FE641CE4B2082CE6D3B5
:101C7000BDE8F087000C014010B50C4640F0B00004
:101C800000F054F8102040EA141000F04FF804F06F
:101C90000F00BDE8104000F049B800002DE9F04108
:101CA0000746CE004000083E801E15464FF0FF3824
:101CB000F1B2C0B2FFF7E0FF1148002400EB0515B8
:101CC0002819A0F5805090F8000E00F03FF8641C31
:101CD000E4B2082CF4D308EB4700F1B2C0B2FFF72E
:101CE000CBFF00242819A0F5805090F8080E00F0D2
:101CF0002DF8641CE4B2082CF4D3BDE8F081000098
:101D00009A4100082DE9F04115460E460746002489
:101D100006E03019C1B23846FFF7C0FF641CE4B2D8
:101D20002A5D002AF5D1BDE8F081000010B5044617
:101D300000224FF400410448FEF76AFE2046BDE849
:101D40001040FFF771BF0000000C014010B50446C1
:101D50000122D1030348FEF75BFE2046BDE8104098
:101D6000FFF762BF000C0140012207490748FFF757
:101D700071FD074D4FF4005421462846FEF740FE02
:101D8000C82000F049FAF7E701000020EC08002025
:101D9000001001401C4D1D4E1D4FDFF8788064215E
:101DA000306900F08FFA3878012828D1002416E035
:101DB000285D582807D10120FFF78AFD012116A2CE
:101DC0000846FFF79FFF285D592807D10020FFF73D
:101DD0007FFD012111A20846FFF794FF641CB8F8AB
:101DE00000008442E4DB00203870A8F800004FF4C3
:101DF00000610548FEF703FB706801F01DFD01203E
:101E000000F00AFACBE70000A40000200400002044
:101E100000000020020000204F4B00004E4F000049
:101E200010B5502080F31188BFF34F8FBFF36F8F31
:101E300001F094FF18B104494FF080500860002071
:101E400080F3118810BD000004ED00E030B58FB0C4
:101E500028216846FEF7F5FA14210AA8FEF7F1FAE0
:101E600001210804CDE90010002402940225049108
:101E7000CDE907504FF4E01009906846FEF79AFF4D
:101E800008B172B6FEE70F20CDE90A054FF4806075
:101E9000CDE90C4002210AA80E94FEF78FFE00281F
:101EA00001D072B6FEE70FB030BD70470148FFF7B2
:101EB00046BA0000A40800200148FFF740BA00001D
:101EC00034090020F0B50268164B174C174D4FF03F
:101ED0008047984205D0B84203D0A04201D0A84222
:101EE00003D122F070064A683243984205D0B842C6
:101EF00003D0A04201D0A84203D122F44074CA68A2
:101F000022434C6922F08002224302608A68C26246
:101F10000A688262984201D1096901630121416125
:101F2000F0BD0000002C014000040040000800400B
:101F300010B5846842EA032224F47F440A43224312
:101F4000826010BD826822F070020A4342F00701ED
:101F50008160704710B5036A046A24F001040462CA
:101F6000846924F0F00444EA021423F00A020A43CC
:101F70008461026210BD10B5036A046A24F0100483
:101F80000462846923F0A00324F4704444EA02321A
:101F900043EA01118261016210BD10B5406A00215F
:101FA000C185C184FFF7ACFA10BD01680C3151E85E
:101FB000002F22F4907241E80023002BF5D1016834
:101FC000143151E8002F22F0010241E80023002BD8
:101FD000F5D1016B012909D101680C3151E8002FBD
:101FE00022F0100241E80023002BF5D1202180F8D7
:101FF000421000210163704708B590F84210222971
:1020000001D0022008BD82684FF480539A4201D16A
:10201000016921B1816A9A421BD04AB10AE0026883
:10202000816A5268C2F308020A80816A891C08E04A
:10203000026972B10268526802F07F020A70816A16
:10204000491C8162C18D491E0904090CC18503D058
:102050001BE002685268F1E70168CA6822F02002BA
:10206000CA600168CA6822F48072CA6001684A695D
:1020700022F001024A61202180F8421000214163D0
:10208000026B012A03D0FFF7F3FB002008BD0163B8
:1020900001680C3151E8002F22F0100241E80023C2
:1020A000002BF5D101680A68D20602D50A68496892
:1020B0000091818DFFF723FAE7E7000070B5044631
:1020C00000680169E26821F440511143016121690E
:1020D000A0680843616908432168CA6841F20C633B
:1020E0009A430243CA6020684169A26921F44071A1
:1020F000114341611E492068884202D1FEF724FE47
:1021000001E0FEF711FE00EBC00101EB0012606878
:1021100064218000B2FBF0F3B3FBF1F36FF018061B
:102120007343B2FBF0F5B2FBF0F605EB8305322307
:1021300003EB0515B5FBF1F5B6FBF1F605F0F0057F
:1021400005EB0615B2FBF0F6B2FBF0F0B0FBF1F0D8
:102150006FF01802504306EB800003EB0010B0FB59
:10216000F1F0216800F00F002844886070BD000085
:102170000038014081628285C285002141642221AC
:1021800080F84210016921B10168CA6842F4807286
:10219000CA6001684A6942F001024A610068C16888
:1021A00041F02001C1600020704700000148FFF7A6
:1021B000A9B90000EC080020FEE70907090E002875
:1021C00004DB00F1E02080F80014704700F00F00FD
:1021D00000F1E02080F8141D7047704704490A6838
:1021E0005206FCD5024AC1B2121D116070470000B0
:1021F00000480040FEF720FCFFF728FEFFF7E8FB51
:10220000FFF73CFCFFF76EFC00F020F8FFF786FBC1
:1022100000F038F8FEE7000010B5EFF3058149B98A
:10222000EFF3108131B908490968022905D1EFF3AC
:10223000118111B16FF0050403E0002408B100F032
:10224000F1FE204610BD00007C000020EFF3058069
:1022500058B9EFF3108040B909490868022801D045
:1022600030B109E0EFF3118030B16FF00500704735
:1022700001200860002070474FF0FF3070470000D9
:102280007C00002010B5EFF3058060B9EFF31080FB
:1022900048B90B490868022802D0012806D00BE093
:1022A000EFF3118040B16FF0050010BD022008600F
:1022B00000F0B0FF002010BD4FF0FF3010BD000057
:1022C0007C000020F8B50D460024211F4E1C00287C
:1022D0000ED000BFEFF305824AB9EFF3108232B996
:1022E000134A1268022A17D1EFF31182A2B10DB17D
:1022F0000C461BE000216A46009101F059FB0128C1
:1023000013D1009890B10B494FF080500860BFF393
:102310004F8FBFF36F8F09E0294601F097FB01282B
:1023200004D015B16FF0010400E034462046F8BD3A
:102330007C00002004ED00E0F8B5144603460E468C
:102340004FF00005EFF30580E8BBEFF31080D0BB42
:1023500024480068022802D1EFF3118098BB93B3A0
:102360009E423DD84CB1A0680028E06803D05028B8
:1023700036D3012002E008B132E00020012B05D065
:1023800010B31846A26801F034F820E040B10320F1
:102390000090002211460120A36801F079F804E0C2
:1023A00003220021012001F04FF8050018D086B16A
:1023B00000231A46194601F0E3F8012809D02846FF
:1023C00000F0E2FD00250BE0184600F0F5FF0500E7
:1023D00006D00CB1216800E00021284600F0C0FDC5
:1023E0002846F8BD7C00002038B50024E51E0028F2
:1023F00004D000BFEFF3058169B902E06FF0030478
:1024000023E0EFF3108131B911490968022914D191
:10241000EFF3118189B100210091694601F0BEF905
:10242000012811D1009880B10A494FF0805008600E
:10243000BFF34F8FBFF36F8F07E000231A46194693
:1024400001F09EF8012800D02C46204638BD00003F
:102450007C00002004ED00E0F0B585B04FEA0103F8
:102460004FF00004EFF305810394A1BBEFF310815B
:1024700089BB21490968022902D1EFF3118151BBBF
:1024800048B3802618218DF8104004AD42B3176878
:1024900007B13D4697691FB139467F1E382F02D2DA
:1024A0001779FF0702D0002005B0F0BD576907B1CA
:1024B000BE08D2F808C0BCF1000F0DD0D4685C2C67
:1024C00018D312693AB137B18DE806103246294661
:1024D00001F0FFFB03900DE0D7685FB912694AB9BC
:1024E00003AACDE90012B2B2294601F0C5FB0128CA
:1024F00000D003940398D7E77C0000202DE9F04139
:10250000134C0F46054666692068001D00F02EFC3E
:10251000681C07D137B12168BDE8F0410D48091D9D
:1025200000F074BC20683544B5424560216805D28E
:10253000A068BDE8F041091D00F050BC6068091DAD
:1025400000F04CFC206B854200D22563BDE8F08191
:102550002C0000206C0E00202DE9F041054600F013
:1025600061FC2D4C2069401C206120682B4F10B16C
:10257000E06930B32BE025602069012827D10026CF
:1025800006EB860007EB800000F01AFC761C382E64
:10259000F6D3234800F014FC2148143000F010FC5E
:1025A0001F48283000F00CFC1D483C3000F008FCAF
:1025B0001B48503000F004FC194860601430A060E3
:1025C00005E02068E96AC06A884200D82560E06AB0
:1025D000401CE0626864E86AA169884200D9A06191
:1025E00000EB800007EB8000291D00F00FFC00F0DD
:1025F00039FCE06900280CD02068E96AC06A88428A
:1026000007D208494FF080500860BFF34F8FBFF3E7
:102610006F8FBDE8F08100002C000020BC09002075
:102620001C0E002004ED00E038B500F0FBFB104C60
:10263000A068C8B90F4800F0C3FB0E48143000F082
:10264000BFFB0C482060143060600A4B0020283328
:10265000009003F1500210210A2000F019FFA06041
:1026600010B105A100F07CFCBDE8384000F0FABBD9
:1026700068000020800E0020546D725100000000A0
:1026800030B4026C0B46002A0BD0C1681144C16003
:102690004468A14201D30168C16030BC1846FDF70F
:1026A00061BE30BC70472DE9F041856B174604468A
:1026B0000026026C82B1C7B1E068FDF753FEE16805
:1026C000206C091AE1602268914202D26168081AFE
:1026D000E060022F16D017E02068A8B9606801F00A
:1026E000A1FB0646002060600EE0A068FDF73AFE00
:1026F000216CA0680844A0606168884204D3206807
:10270000A06001E005B16D1E6D1CA5633046BDE8FB
:10271000F08110B5044690F8590058B101280CD04A
:1027200002280FD0502080F31188BFF34F8FBFF3E2
:102730006F8FFEE7206B00F0A9FB2046BDE810403C
:1027400000F0A4BB10BD000010484FF440614207E8
:1027500006D0C01D0D4920F00700411AC1F54061A7
:102760000B4A00230144C2E900030839103A21F062
:10277000070111604B600B600B1AC0E900139360F6
:102780004FF000405360D0607047000050160020AA
:1027900090000020144E154CA6F29C474FF0805834
:1027A000DFF84C9012E000BF00F03CFBF068C56819
:1027B000281D00F0DBFA2069401E2061E068401E01
:1027C000E06000F04FFB2846FFF7A3FFE068002819
:1027D000EAD138680128F9D9C9F80080BFF34F8FD2
:1027E000BFF36F8FF2E70000580E00202C0000208E
:1027F00004ED00E0002807D00021416001600B4695
:102800000A46C16000F0BCBE7047000070B51D46AE
:10281000049C51B1C4F80020C4E90F0101212046F5
:1028200000F06AFE84F84C5070BD2460F4E72DE996
:10283000F0470E46DDE90984174682469100994625
:10284000089DA522206BFDF7D2FD6FF00301206BE0
:1028500001EB8701084420F00707780707D05020D4
:1028600080F31188BFF34F8FBFF36F8FFEE72218FD
:10287000315C82F83410315C11B1401C1028F6D361
:10288000002684F84360382D00D33725E562C4E97B
:102890001356201D00F09FFA04F1180000F09BFA77
:1028A0002461C5F138006462A061666584F85860EF
:1028B0004A465146384600F047FA2060B8F1000F0A
:1028C00001D0C8F80040BDE8F087000030B51149DC
:1028D00000E011460A688242FBD34B685C188442D0
:1028E00003D1406818444860084643681C18944265
:1028F00009D1084C103C2468A24209D052681A44FD
:1029000042600A6812680260814200D0086030BDEF
:102910000460F9E79000002070B5002441600B4D81
:102920000061914206D8D11A8269914206D2011DF6
:10293000686807E09A4203D2994201D3012403E078
:10294000011D286800F04AFA204670BD680000208A
:1029500010B5044600F066FAA06B28B15FF00004E1
:1029600000F080FA204610BD0124F9E730B589B0A7
:10297000304D55E00498002806DADDE90601059A95
:102980009047049800284BDB069C606910B1201D1D
:1029900000F0ECF902A800F0B9F8024604980A2801
:1029A0003ED2DFE800F00505053D263705053D264A
:1029B0000598A169034601442046FFF7ADFF00B327
:1029C000616A20468847E069012829D100200090EB
:1029D0000598A169002342181946204601F068FBBA
:1029E00078B9502080F31188BFF34F8FBFF36F8FFA
:1029F000FEE70598A06128B1811813462046FFF72D
:102A00008BFF0DE0502080F31188BFF34F8FBFF391
:102A10006F8FFEE794F82C0010B9204600F036FACC
:102A2000002204A9A86800F027FF0028A2D109B05D
:102A300030BD0000680000202DE9FC410F4605462E
:102A400000F02CFC01A800F061F80446019818B1D0
:102A500001F09CFABDE8FC81224EAFB170680068BD
:102A6000A8B30027291B3A46B06800F0B9FA01F074
:102A70008DFA0028EED11C494FF080500860BFF35A
:102A80004F8FBFF36F8FE5E7A542EBD801F07EFAD9
:102A900030682746C068C468201D00F067F9E06907
:102AA000012810D1A0692B4641193A462046FFF76C
:102AB00033FF40B100200346014600902A462046DD
:102AC00001F0F6FA20B1616A20468847C2E707E0C4
:102AD000502080F31188BFF34F8FBFF36F8FFEE755
:102AE0000127BFE76800002004ED00E006484168C8
:102AF000096829B14168C968C968496801637047B4
:102B00004FF0FF31FAE700002C00002070B50546B9
:102B100001F01EF9064E04463069844203D200F0EB
:102B200009F8012000E0002028602046346170BDD3
:102B300068000020F8B5194D1FE0C068C468066839
:102B4000201D00F013F9616A20468847E0690128DA
:102B500013D1A0693044B04206D924616060211DC0
:102B6000286800F03BF908E0002003460146009089
:102B70003246204601F09CFA38B1286801680029E5
:102B8000DBD16968C5E90010F8BD502080F31188D9
:102B9000BFF34F8FBFF36F8FFEE700006800002088
:102BA00008484068401C4FF0500080F3118804D062
:102BB000BFF34F8FBFF36F8FFEE7BFF34F8FBFF3AE
:102BC0006F8FFEE798000020074C2068016841B134
:102BD000C0680021D0F80000FFF72EFFFFF7C6FE07
:102BE000F3E701210020F7E7680000202DE9F0411C
:102BF000044600F017F994F9455004F1240609E061
:102C0000606A48B1304601F089F908B100F080FAF5
:102C10006D1E6DB2002DF3DC4FF0FF3684F8456079
:102C200000F020F900F0FEF894F9445004F1100788
:102C300009E0206948B1384601F070F908B100F0A8
:102C400067FA6D1E6DB2002DF3DC84F84460BDE8B8
:102C5000F04100F007B900002DE9F04105460027DA
:102C600000F01CFB314E306808B9FFF76DFDF068CD
:102C700005424BD1C5B3083568070ED005F00700F3
:102C8000C0F108000544680707D0502080F3118880
:102C9000BFF34F8FBFF36F8FFEE72DB37068854290
:102CA00034D82248103001460C6801E020460C461A
:102CB0006168A94202D221680029F7D131688C42AB
:102CC00024D007682168016060680837411B10291B
:102CD0000FD96019420708D0502080F31188BFF344
:102CE0004F8FBFF36F8FFEE710E041606560FFF725
:102CF000EDFD61687068401A7060B268904200D261
:102D0000B060F06801430020C4E9000101F03EF921
:102D1000780707D0502080F31188BFF34F8FBFF39F
:102D20006F8FFEE73846BDE8F0810000800000208C
:102D30000449086818B10868026D521C02650868E9
:102D4000704700002C00002010B5031F4FF0807466
:102D50001C601B1F21F001011960191F024B0B6041
:102D6000143940380A6010BDA12B0008D0E90132A7
:102D700001699A60D0E901235A604A68824201D110
:102D800082684A60002202610868401E0860086884
:102D900070470000034B036003F15C000860802073
:102DA00010607047980F0020044B036003F15C0033
:102DB00008604FF48070106070470000F41100202C
:102DC00000F108014FF0FF32C0E90112C16001615A
:102DD00000210160704700210161704730B50B6828
:102DE0005A1C02D000F1080202E0026904E0224607
:102DF000546825689D42FAD953684B6099608A608F
:102E0000516008610168491C016030BD42684A6038
:102E100093688B6093685960916008610168491CF0
:102E200001607047502080F31188BFF34F8FBFF3CC
:102E30006F8F0A494868401C486001280CD1084837
:102E4000006810F0FF0F07D0502080F31188BFF307
:102E50004F8FBFF36F8FFEE7704700009800002090
:102E600004ED00E00849486828B1401E486001D1DF
:102E700080F311887047502080F31188BFF34F8F83
:102E8000BFF36F8FFEE700009800002070B50028A8
:102E900027D0144DA0F108046168E868014207D109
:102EA000502080F31188BFF34F8FBFF36F8FFEE781
:102EB00022683AB1502080F31188BFF34F8FBFF3DF
:102EC0006F8FFEE78143616000F0E8F96068696830
:102ED000084468602046FFF7F9FCBDE8704001F047
:102EE00055B870BD800000204FF0E0200021016146
:102EF000816105494FF47A720968B1FBF2F1491E0C
:102F000041610721016170472800002010B5FDF7DD
:102F100087F9114910280ED300F1E02090F8F00352
:102F20000A78904207D2502080F31188BFF34F8F68
:102F3000BFF36F8FFEE709480068896800F4E0601E
:102F4000884207D9502080F31188BFF34F8FBFF319
:102F50006F8FFEE710BD0000980000200CED00E030
:102F600010B5084B002200BF53F832401CB1521C70
:102F7000082AF9D310BD43F8321003EBC2014860B0
:102F800010BD00007C09002010B504000AD000F03C
:102F900013F894F8460000280CD12046BDE81040F4
:102FA000FFF774BF502080F31188BFF34F8FBFF33A
:102FB0006F8FFEE710BD0000084A002102EBC1033D
:102FC0005B68834206D1002042F8310002EBC10168
:102FD00048607047491C0829F0D370477C090020DD
:102FE00070B515460E460446FFF71CFF94F94410D1
:102FF0000020491C01D184F8440094F94510491C73
:1030000001D184F84500FFF72DFFA06B28B92A46AF
:10301000314604F1240000F099F82046BDE87040E4
:10302000FFF7E4BD10B5020014D00F48806B38B133
:10303000502080F31188BFF34F8FBFF36F8FFEE7EF
:1030400000F02CF900211046FFF758FA00F09EFF1F
:10305000002807D105494FF080500860BFF34F8F1B
:10306000BFF36F8F10BD00002C00002004ED00E0C6
:1030700070B50546FFF7D6FE1E4C05B92568281D1C
:10308000FFF774FEA86A18B105F11800FFF76EFE8D
:10309000E06A401CE0622068854207D1291D16487D
:1030A000FFF7B4FEE068401CE06007E02069401EC6
:1030B00020612846FFF72DFBFFF718FDFFF7D2FE32
:1030C000E069002814D02068854211D1A06B38B186
:1030D000502080F31188BFF34F8FBFF36F8FFEE74F
:1030E00006494FF080500860BFF34F8FBFF36F8FDA
:1030F00070BD00002C000020580E002004ED00E000
:1031000002498A6A02604969416070472C000020C8
:1031100001490120486270472C00002010B50C4680
:1031200050B1094909681831FFF758FE2046BDE83B
:1031300010400121FFF7E2B9502080F31188BFF35E
:103140004F8FBFF36F8FFEE72C00002070B5144641
:103150000D4668B10A4909681831FFF757FE0CB1EE
:103160004FF0FF3521462846BDE87040FFF7C6B94D
:10317000502080F31188BFF34F8FBFF36F8FFEE7AE
:103180002C00002070B504003ED0226DA2B1E06C8E
:10319000884200D30146E06A884235D0012A33D103
:1031A0001A4D2A6894420FD1502080F31188BFF342
:1031B0004F8FBFF36F8FFEE7502080F31188BFF36E
:1031C0004F8FBFF36F8FFEE7E162A269002A02DB37
:1031D000C1F13801A1610E4E00EB8000616906EB80
:1031E0008000814210D1201DFFF7C0FDE06AA9696F
:1031F000884200D9A86100EB800006EB8000211D09
:10320000BDE87040FFF702BE70BD00002C0000203A
:10321000BC09002030B587B00024039405AA04A996
:1032200003A80494FFF7B6FDDDE903010094CDE99E
:103230000110002315A11748059A00F04AFD164D0C
:10324000002868631FD000F003FF012809D0401C4C
:1032500019D1502080F31188BFF34F8FBFF36F8FC8
:10326000FEE7502080F31188BFF34F8FBFF36F8FBD
:103270004FF0FF3028630120E8616C6107B0BDE8C2
:10328000304000F045B807B030BD000049444C451F
:1032900000000000952700082C0000200248816BE8
:1032A000491C8163704700002C000020164810B5AF
:1032B000816B11B10121416210BD00214162816920
:1032C000124A01E0B9B1491E01EB810352F82330E3
:1032D000002BF7D001EB810302EB830202F108041B
:1032E00053685B685360A34201D15B685360DA683E
:1032F0000260816110BD502080F31188BFF34F8FB1
:10330000BFF36F8FFEE700002C000020BC090020F7
:103310001CB5264908780190FF20087008788DF8C0
:1033200000009DF800009DF8002000F0F0009042A1
:1033300007D0502080F31188BFF34F8FBFF36F8FFA
:10334000FEE79DF800001A4B00F0500018700720AF
:10335000986005E09DF8002052008DF80020401E86
:103360009DF800201206F5D49860032807D050205D
:1033700080F31188BFF34F8FBFF36F8FFEE74FF4D9
:1033800040709860019808700A48016841F4700123
:103390000160016841F070410160FFF7A5FD002068
:1033A0005860FCF707FF00201CBD000000E400E0AF
:1033B0009800002020ED00E010B50C4648B1844292
:1033C0000FD9502080F31188BFF34F8FBFF36F8F59
:1033D000FEE7502080F31188BFF34F8FBFF36F8F4C
:1033E000FEE70222002100F02FF8002800D08463BD
:1033F00010BD38B50C4648B184420FD9502080F337
:103400001188BFF34F8FBFF36F8FFEE7502080F31B
:103410001188BFF34F8FBFF36F8FFEE70221134672
:1034200000220091114600F033F8002800D0846398
:1034300038BD10B502460021012000F005F8044611
:10344000FFF7D8F9204610BDF8B517460E4605001F
:1034500014D0DEB105FB06F05030FFF7FDFB040091
:103460000AD0002084F8460004F150023B46314661
:1034700028460094FFF7CAF92046F8BD502080F393
:103480001188BFF34F8FBFF36F8FFEE70020E3E794
:1034900038B5049D18B153B1CAB181B120E05020B4
:1034A00080F31188BFF34F8FBFF36F8FFEE750207B
:1034B00080F31188BFF34F8FBFF36F8FFEE750206B
:1034C00080F31188BFF34F8FBFF36F8FFEE739B1E1
:1034D000502080F31188BFF34F8FBFF36F8FFEE74B
:1034E00050241C46012384F846302B460094FFF7F5
:1034F0008DF9204638BD000070B50D46040025D07A
:10350000FFF790FCD4E90F20216802FB00116160F5
:103510000021A1632168A1600A46D4E90F01401E81
:1035200000FB0121E16021464FF0FF3001F8440F1C
:10353000487004F110008DB1FFF742FC04F1240043
:10354000FFF73EFCFFF78EFC012070BD502080F39A
:103550001188BFF34F8FBFF36F8FFEE721690029FA
:10356000F0D000F0DBFC0028ECD004494FF0805094
:103570000860BFF34F8FBFF36F8FE3E704ED00E008
:103580002DE9FF4782B01D468A464FF0000804002F
:1035900003D0BAF1000F08D011E0502080F3118859
:1035A000BFF34F8FBFF36F8FFEE7206C38B1502011
:1035B00080F31188BFF34F8FBFF36F8FFEE7022DAB
:1035C0000AD1E06B012807D0502080F31188BFF3A7
:1035D0004F8FBFF36F8FFEE700F0ACFB3F4F4FF014
:1035E00000094FF0805648B9049838B1502080F354
:1035F0001188BFF34F8FBFF36F8FFEE7FFF712FC09
:10360000A06BE16B884207D3022D05D00498D0B19E
:10361000B8F1000F1AD01EE02A4651462046FFF7A7
:1036200042F8616A19B104F1240000F077FC20B17E
:103630003E60BFF34F8FBFF36F8FFFF713FC012086
:1036400006B0BDE8F087FFF70DFC22E06846FFF703
:1036500057FD4FF00108FFF705FCFFF71FFEFFF7CE
:10366000E1FB94F94400401C01D184F8449094F9A2
:103670004500401C01D184F84590FFF7F3FB04A9F5
:10368000684600F0BFFA30B12046FFF7AFFA00F00D
:103690007DFC0020D4E7FFF7C5FBA06BE16B8842FF
:1036A00013D1FFF7DFFB04F110000499FFF736FD9B
:1036B0002046FFF79BFA00F069FC00289ED13E608F
:1036C000BFF34F8FBFF36F8F98E7FFF7CBFB204619
:1036D000FFF78CFA00F05AFC90E7000004ED00E0E0
:1036E0002DE9F0471F4690468946040003D0B9F102
:1036F000000F08D011E0502080F31188BFF34F8FE6
:10370000BFF36F8FFEE7206C38B1502080F3118833
:10371000BFF34F8FBFF36F8FFEE7022F0AD1E06B2D
:10372000012807D0502080F31188BFF34F8FBFF3DB
:103730006F8FFEE7FFF7EAFB5020EFF3118680F36F
:103740001188BFF34F8FBFF36F8FA06BE16B88427F
:1037500006D3022F04D0002086F31188BDE8F0873D
:1037600094F945503A4649462046FEF79CFF681CAE
:1037700004D06D1C84F845500120EDE7606A0028F4
:10378000FAD004F1240000F0C9FB0028F4D0B8F10D
:10379000000FF1D00121C8F80010EDE770B50E461A
:1037A000040009D0206C78B1502080F31188BFF359
:1037B0004F8FBFF36F8FFEE7502080F31188BFF368
:1037C0004F8FBFF36F8FFEE7206848B9606838B14C
:1037D000502080F31188BFF34F8FBFF36F8FFEE748
:1037E000FFF794FB5020EFF3118580F31188BFF3AE
:1037F0004F8FBFF36F8FA16BE06B884218D994F99C
:103800004500491CA163411C04D0401C84F84500BC
:1038100001200EE0606A0028FAD004F1240000F0D4
:103820007DFB0028F4D0002EF2D001203060EFE7BD
:10383000002085F3118870BD10B5040009D000F098
:1038400073FA6168884214D1E068401EE06008D0D5
:103850000DE0502080F31188BFF34F8FBFF36F8FBF
:10386000FEE700231A4619462046FFF789FE01208D
:1038700010BD002010BD00002DE9F747002683B0E1
:103880008A46040003D0BAF1000F08D011E050209E
:1038900080F31188BFF34F8FBFF36F8FFEE7206C6B
:1038A00038B1502080F31188BFF34F8FBFF36F8F73
:1038B000FEE700F03FFADFF8F4804FF000094FF028
:1038C000805748B9059838B1502080F31188BFF36C
:1038D0004F8FBFF36F8FFEE7FFF7A4FAA56BC5B15B
:1038E00051462046FEF7CCFE6D1EA563206950B1FF
:1038F00004F1100000F012FB28B1C8F80070BFF30B
:103900004F8FBFF36F8FFFF7ADFA012006B0BDE810
:10391000F087059808B11EB106E0FFF7A3FA27E08B
:103920006846FFF7EDFB0126FFF79CFAFFF7B6FCB0
:10393000FFF778FA94F94400401C01D184F84490D0
:1039400094F94500401C01D184F84590FFF78AFAAC
:1039500005A9684600F056F9002820460AD0FFF76E
:1039600045F900F013FB2046FEF7F2FF0028B3D024
:103970000020CBE7FEF7ECFF90B104F1240005999D
:10398000FFF7CCFB2046FFF731F900F0FFFA0028E3
:10399000A2D1C8F80070BFF34F8FBFF36F8F9BE7C2
:1039A0002046FFF723F900F0F1FA95E704ED00E077
:1039B0002DE9F04790468946040003D0B9F1000F85
:1039C00008D011E0502080F31188BFF34F8FBFF370
:1039D0006F8FFEE7206C38B1502080F31188BFF361
:1039E0004F8FBFF36F8FFEE7FFF790FA5020EFF392
:1039F000118680F31188BFF34F8FBFF36F8FA76BD2
:103A0000F7B194F9445049462046FEF739FE7F1E2F
:103A1000A763681C04D06D1C84F84450012010E09A
:103A200020690028FAD004F1100000F077FA00288D
:103A3000F4D0B8F1000FF1D00121C8F80010EDE783
:103A4000002086F31188BDE8F08700002DE9F343DC
:103A5000002683B00400354609D0206C78B1502090
:103A600080F31188BFF34F8FBFF36F8FFEE75020B5
:103A700080F31188BFF34F8FBFF36F8FFEE700F025
:103A800059F9DFF83C814FF000094FF0805748B9F1
:103A9000049838B1502080F31188BFF34F8FBFF3E3
:103AA0006F8FFEE7FFF7BEF9A06BC8B1401EA063A1
:103AB000206810B9FFF73CF96060206950B104F14B
:103AC000100000F02BFA28B1C8F80070BFF34F8F38
:103AD000BFF36F8FFFF7C6F9012005B0BDE8F08393
:103AE000049808B166B10FE03DB1502080F3118811
:103AF000BFF34F8FBFF36F8FFEE7FFF7B3F95DE0C2
:103B00006846FFF7FDFA0126FFF7ACF9FFF7C6FBA1
:103B1000FFF788F994F94400401C01D184F84490DF
:103B200094F94500401C01D184F84590FFF79AF9BB
:103B300004A9684600F066F80028204612D0FFF776
:103B400055F800F023FA2046FEF702FF0028A9D01E
:103B50009DB3FFF767F9606A50B3206B0068C0F14E
:103B6000380126E0FEF7F4FEE0B1206838B9FFF72F
:103B700059F9606800F096F90546FFF773F904F10A
:103B800024000499FFF7CAFA2046FFF72FF800F047
:103B9000FDF9002886D1C8F80070BFF34F8FBFF33E
:103BA0006F8F7FE72046FFF721F800F0EFF979E704
:103BB00000216068FFF7E6FA9FE7FFE700208CE747
:103BC00004ED00E070B50D46040009D000F0ACF83B
:103BD000616888420CD1E068401CE060012070BD43
:103BE000502080F31188BFF34F8FBFF36F8FFEE734
:103BF00029462046FFF72AFF0028F0D0E168491C3B
:103C0000E16070BD2DE9F0410C46050011D0C4B152
:103C1000FFF708F9174B5A696E682068911B471C1B
:103C200017D02F689B6A9F4219D0964217D801245B
:103C300010E0502080F31188BFF34F8FBFF36F8FD8
:103C4000FEE7502080F31188BFF34F8FBFF36F8FD3
:103C5000FEE70024FFF706F92046BDE8F081884220
:103C600005D9401A20602846FFF74AFAF1E70020FC
:103C70002060DCE72C0000202DE9FF5F8346DDE9B2
:103C80000E87994616468A469000FEF7E5FF050026
:103C90001CD05C20FEF7E0FF040014D00020256358
:103CA00084F85900CDE90240CDE900874B46324601
:103CB00051465846FEF7BBFD2046FEF74DFC01205D
:103CC00004B0BDE8F09F2846FFF7E0F84FF0FF3062
:103CD000F6E7F0B585B0DDE90B640A9DA6B1DCB16D
:103CE0005C2700972663022684F85960002604AFFB
:103CF000CDE90246CDE90057FEF799FD2046FEF7D3
:103D00002BFC049805B0F0BD502080F31188BFF360
:103D10004F8FBFF36F8FFEE7502080F31188BFF302
:103D20004F8FBFF36F8FFEE70148006870470000B8
:103D30002C0000200548C16919B1806B18B1002022
:103D40007047012070470220704700002C000020BF
:103D500001484069704700002C0000202DE9F04127
:103D60002E4C0027A06B40B1206A401C2062606A84
:103D700000B101273846BDE8F0816669761C6661AE
:103D800013D16068006838B1502080F31188BFF308
:103D90004F8FBFF36F8FFEE76068A1686160A0601E
:103DA000A06A401CA062FEF7A1FE206BDFF87080C5
:103DB000864209D36068006880B16068C068C568E1
:103DC000686886420DD220632068C06A00EB8001DB
:103DD00058F821000128CAD90127C8E74FF0FF3061
:103DE000F1E7281DFEF7C2FFA86A18B105F1180017
:103DF000FEF7BCFFE86AA169884200D9A06100EB28
:103E0000800108EB8100291DFFF700F8E86A2168AE
:103E1000C96A8842CED30127CCE700002C000020DD
:103E2000BC09002070B504004FF0000133D01B4DD9
:103E30002868844207D0502080F31188BFF34F8F49
:103E4000BFF36F8FFEE7206D38B1401E2065E36C35
:103E5000E26A9A421FD040B11DE0502080F31188E1
:103E6000BFF34F8FBFF36F8FFEE7201DFEF77EFF7E
:103E7000E06CE062C0F13800A061E06AA9698842A4
:103E800000D9A861064900EB800001EB8000211DEC
:103E9000FEF7BCFF0121084670BD00002C00002089
:103EA000BC09002070B504004FF000002BD0194D64
:103EB000E16A2A68D26A914226D2A069002804DB0E
:103EC0002868C06AC0F13800A061134E01EB81017F
:103ED000606906EB8101884211D1201DFEF746FF83
:103EE0002868C06AE062A969884200D9A86100EB2D
:103EF000800006EB8000211DFEF788FF02E02868A5
:103F0000C06AE062012070BDE16C2A68D26A914209
:103F1000F8D370BD2C000020BC09002070B5C0682B
:103F2000C46854B104F118000646FEF71FFF144D93
:103F3000A86B50B13146134815E0502080F311882A
:103F4000BFF34F8FBFF36F8FFEE7201DFEF70EFF0D
:103F5000E06AA969884200D9A8610B4900EB80009A
:103F600001EB8000211DFEF751FFE06A2968C96A54
:103F7000884202D90120686270BD002070BD000037
:103F80002C000020440E0020BC0900202DE9F04741
:103F90002C4D00242746A86B38B1FEF743FFA86BD1
:103FA000401EA863A86B40B146E0502080F3118802
:103FB000BFF34F8FBFF36F8FFEE72969224E0120B9
:103FC000D1B3A6F5916980463068E0B1F068C46865
:103FD00004F11800FEF7CAFE201DFEF7C7FEE06AD6
:103FE000A969884200D9A86100EB800109EB810032
:103FF000211DFEF70BFFE06A2968C96A8842E3D3F6
:10400000C5F82480E0E70CB1FEF770FD2C6A4CB1D6
:104010004FEA0806FFF7A2FE00B16E62641EF9D1F6
:1040200000202862686A38B108490127380708600B
:10403000BFF34F8FBFF36F8FFEF714FF3846BDE815
:10404000F08700002C000020440E002004ED00E06A
:1040500010B586B0FEF7E8FA114CA068B8B10020A0
:104060000390049005AA04A903A8FEF79DFEDDE9CC
:10407000032102208DE8070000230AA10B48059ABE
:10408000FFF727FEE06010B106B0012010BD502000
:1040900080F31188BFF34F8FBFF36F8FFEE70000EF
:1040A00068000020546D722053766300C92B00080D
:1040B0002DE9FF411E46134602000A9D4FF0000005
:1040C00016D0144CA768002F0FD0CDE90013029230
:1040D000062917DAFFF72EFE02284FF000030FD053
:1040E00000226946A068FFF74BFA04B0BDE8F081F2
:1040F000502080F31188BFF34F8FBFF36F8FFEE71F
:104100002A46EEE70023324669463846FFF7E8FACA
:10411000EBE70000680000201849000800000000DC
:10412000000000000000000000000000000200008D
:104130001800000000000000000000001049000806
:10414000000000000000000000000000000000006F
:104150000002000018000000000000000000000045
:1041600000490008000000000000000000000000FE
:10417000010202030405060708090A0B0C0D0E0FC5
:1041800010100000000000000000010203040607F8
:104190000809000000000102030400000000000004
:1041A00000000000000000000000000000F8000017
:1041B0000000000000333000000000100C06100C5E
:1041C0000600000000000000000040C07840C078F9
:1041D0004000043F04043F040400007088FC0830E1
:1041E0000000001820FF211E0000F008F000E01879
:1041F000000000211C031E211E0000F00888700032
:1042000000001E2123241927211010160E00000083
:1042100000000000000000000000000000E01804A2
:104220000200000000071820400000020418E0000F
:1042300000000040201807000000404080F080404F
:1042400040000202010F01020200000000F0000025
:1042500000000101011F0101010000000000000039
:10426000000080B0700000000000000000000000AE
:104270000000000101010101010100000000000037
:1042800000000030300000000000000000008060EE
:104290001804006018060100000000E01008081073
:1042A000E000000F102020100F00001010F8000098
:1042B00000000020203F202000000070080808882F
:1042C00070000030282422213000003008888848FF
:1042D00030000018202020110E000000C02010F82F
:1042E000000000070424243F240000F80888880800
:1042F00008000019212020110E0000E01088881805
:104300000000000F112020110E0000380808C838E6
:1043100008000000003F00000000007088080888C6
:104320007000001C222121221C0000E0100808104F
:10433000E0000000312222110F00000000C0C00088
:10434000000000000030300000000000008000008D
:10435000000000008060000000000000804020108D
:104360000800000102040810200040404040404086
:1043700040000404040404040400000810204080E9
:10438000000000201008040201000070480808081E
:10439000F0000000003036010000C030C828E810EE
:1043A000E0000718272423140B000000C038E000A9
:1043B0000000203C23020227382008F888888870F3
:1043C0000000203F202020110E00C03008080808FF
:1043D0003800071820202010080008F808080810E6
:1043E000E000203F202020100F0008F88888E8080F
:1043F0001000203F20202320180008F88888E808B3
:104400001000203F200003000000C03008080838DA
:10441000000007182020221E020008F808000008EB
:10442000F808203F210101213F20000808F8080872
:1044300000000020203F2020000000000808F808AD
:104440000800C08080807F00000008F888C028181D
:104450000800203F20012638200008F8080000004E
:104460000000203F20202020300008F8F800F8F855
:104470000800203F003F003F200008F830C000083F
:10448000F808203F200007183F00E0100808081037
:10449000E0000F10202020100F0008F8080808087E
:1044A000F000203F210101010000E0100808081081
:1044B000E0000F18242438504F0008F888888888B6
:1044C0007000203F2000030C30200070880808088E
:1044D00038000038202121221C00180808F808089C
:1044E00018000000203F2000000008F80800000825
:1044F000F808001F202020201F000878880000C82E
:104500003808000007380E010000F80800F800081D
:10451000F800033C0700073C030008186880806827
:10452000180820302C03032C30200838C800C83865
:1045300008000000203F2000000010080808C838CC
:1045400008002038262120201800000000FE02026A
:1045500002000000007F40404000000C30C000001E
:104560000000000000010638C00000020202FE0048
:104570000000004040407F000000000004020202F2
:104580000400000000000000000000000000000027
:104590000000808080808080808000020204000013
:1045A000000000000000000000000000808080800B
:1045B00000000019242222223F2008F800808000F9
:1045C0000000003F112020110E00000000808080BC
:1045D0000000000E112020201100000000808088C3
:1045E000F800000E112020103F2000008080808005
:1045F0000000001F222222221300008080F0888801
:1046000088180020203F202000000000808080804B
:104610008000006B94949493600008F80080808080
:104620000000203F210000203F20008098980000DB
:1046300000000020203F202000000000008098980B
:10464000000000C08080807F000008F800008080AB
:104650008000203F24022D302000000808F80000D0
:1046600000000020203F202000008080808080808B
:104670008000203F20003F20003F8080008080801D
:104680000000203F210000203F200000808080802B
:104690000000001F202020201F008080008080005C
:1046A000000080FFA12020110E000000008080800B
:1046B0008000000E112020A0FF808080800080807C
:1046C000800020203F2120000100000080808080A9
:1046D00080000033242424241900008080E080809E
:1046E00000000000001F20200000808000000080EB
:1046F0008000001F202020103F208080800000804C
:10470000808000010E30080601008080008000805B
:1047100080800F300C030C300F0000808000808000
:1047200080000020312E0E3120008080800000802B
:10473000808080818E7018060100008080808080DB
:1047400080000021302C2221300000000000807CFD
:10475000020200000000003F404000000000FF0097
:10476000000000000000FF0000000002027C80004A
:1047700000000040403F000000000006010102026E
:1047800004040000000000000000000041542B4D14
:10479000515454555345524346473D302C312C22F9
:1047A0004E554C4C222C2274657374266B316C77F9
:1047B0003950766C687162222C2265323633303281
:1047C0003638336432306163653564333534376489
:1047D00063353666633863366231366163656337E5
:1047E000386533313038666561316531333066366E
:1047F00038653362633361353032222C302C302CF3
:1048000022220D0A0000000041542B4D5154544304
:104810004C49454E5449443D302C226B316C77391C
:1048200050766C6871622E746573747C7365637501
:1048300072656D6F64653D325C2C7369676E6D6582
:1048400074686F643D686D61637368613235365CAE
:104850002C74696D657374616D703D31373232311E
:1048600035363737343631327C220D0A00000000ED
:1048700041542B4D5154545055423D302C222F6BF6
:10488000316C773950766C6871622F746573742F50
:10489000757365722F757064617465222C227B5C60
:1048A000224C45445377697463685C223A25647DE1
:1048B000222C312C300D0A0041542B4D51545443BD
:1048C0004F4E4E3D302C22696F742D30367A303089
:1048D0006535703573356D3031702E6D7174742E91
:1048E000696F746875622E616C6979756E63732E79
:1048F000636F6D222C313838332C310D0A000000E3
:104900006D7942696E61727953656D3031000000D6
:1049100055335F5461736B0064656661756C7454E4
:1049200061736B004449000800000020A4000000EF
:1049300028010008E8490008A40000200C28000015
:10494000440100080000000000000000000000001A
:104950000000000000000000000000000000000057
:104960000100000010000000000000000024F4001E
:104970000000000000000000000000000000000037
:104980000000000000000000000000000000000027
:104990000000000000000000000000000000000017
:1049A0000000000000000000000000000000000007
:1049B00000000000000000000000000000000000F7
:1049C00000000000000000000000000000000000E7
:1049D00000000000000000000000000000000000D7
:0849E000AAAAAAAA0000000027
:04000005080000ED02
:00000001FF
